{
  "contractName": "WalletEscrow",
  "abi": [
    {
      "inputs": [],
      "payable": false,
      "stateMutability": "nonpayable",
      "type": "constructor"
    },
    {
      "constant": true,
      "inputs": [],
      "name": "CompanyPhone",
      "outputs": [
        {
          "internalType": "bytes32",
          "name": "",
          "type": "bytes32"
        }
      ],
      "payable": false,
      "stateMutability": "view",
      "type": "function"
    },
    {
      "constant": true,
      "inputs": [],
      "name": "CurrencyDJF",
      "outputs": [
        {
          "internalType": "bytes32",
          "name": "",
          "type": "bytes32"
        }
      ],
      "payable": false,
      "stateMutability": "view",
      "type": "function"
    },
    {
      "constant": true,
      "inputs": [],
      "name": "CurrencyIDR",
      "outputs": [
        {
          "internalType": "bytes32",
          "name": "",
          "type": "bytes32"
        }
      ],
      "payable": false,
      "stateMutability": "view",
      "type": "function"
    },
    {
      "constant": true,
      "inputs": [],
      "name": "CurrencyKES",
      "outputs": [
        {
          "internalType": "bytes32",
          "name": "",
          "type": "bytes32"
        }
      ],
      "payable": false,
      "stateMutability": "view",
      "type": "function"
    },
    {
      "constant": true,
      "inputs": [],
      "name": "CurrencyNGN",
      "outputs": [
        {
          "internalType": "bytes32",
          "name": "",
          "type": "bytes32"
        }
      ],
      "payable": false,
      "stateMutability": "view",
      "type": "function"
    },
    {
      "constant": true,
      "inputs": [],
      "name": "CurrencyUSD",
      "outputs": [
        {
          "internalType": "bytes32",
          "name": "",
          "type": "bytes32"
        }
      ],
      "payable": false,
      "stateMutability": "view",
      "type": "function"
    },
    {
      "constant": true,
      "inputs": [],
      "name": "CurrencyXOF",
      "outputs": [
        {
          "internalType": "bytes32",
          "name": "",
          "type": "bytes32"
        }
      ],
      "payable": false,
      "stateMutability": "view",
      "type": "function"
    },
    {
      "constant": true,
      "inputs": [
        {
          "internalType": "uint256",
          "name": "",
          "type": "uint256"
        }
      ],
      "name": "Orders",
      "outputs": [
        {
          "internalType": "uint256",
          "name": "id",
          "type": "uint256"
        },
        {
          "internalType": "bytes32",
          "name": "phone",
          "type": "bytes32"
        },
        {
          "internalType": "bytes32",
          "name": "orderType",
          "type": "bytes32"
        },
        {
          "internalType": "bytes32",
          "name": "currency",
          "type": "bytes32"
        },
        {
          "internalType": "uint256",
          "name": "totalDeposit",
          "type": "uint256"
        },
        {
          "internalType": "uint256",
          "name": "endSum",
          "type": "uint256"
        },
        {
          "internalType": "uint256",
          "name": "status",
          "type": "uint256"
        }
      ],
      "payable": false,
      "stateMutability": "view",
      "type": "function"
    },
    {
      "constant": true,
      "inputs": [
        {
          "internalType": "bytes32",
          "name": "",
          "type": "bytes32"
        }
      ],
      "name": "Phones",
      "outputs": [
        {
          "internalType": "bool",
          "name": "isActive",
          "type": "bool"
        }
      ],
      "payable": false,
      "stateMutability": "view",
      "type": "function"
    },
    {
      "constant": true,
      "inputs": [],
      "name": "TestPhone",
      "outputs": [
        {
          "internalType": "bytes32",
          "name": "",
          "type": "bytes32"
        }
      ],
      "payable": false,
      "stateMutability": "view",
      "type": "function"
    },
    {
      "constant": true,
      "inputs": [],
      "name": "TypeBattery",
      "outputs": [
        {
          "internalType": "bytes32",
          "name": "",
          "type": "bytes32"
        }
      ],
      "payable": false,
      "stateMutability": "view",
      "type": "function"
    },
    {
      "constant": true,
      "inputs": [],
      "name": "TypeWater",
      "outputs": [
        {
          "internalType": "bytes32",
          "name": "",
          "type": "bytes32"
        }
      ],
      "payable": false,
      "stateMutability": "view",
      "type": "function"
    },
    {
      "constant": true,
      "inputs": [],
      "name": "orderId",
      "outputs": [
        {
          "internalType": "uint256",
          "name": "",
          "type": "uint256"
        }
      ],
      "payable": false,
      "stateMutability": "view",
      "type": "function"
    },
    {
      "constant": true,
      "inputs": [],
      "name": "owner",
      "outputs": [
        {
          "internalType": "address",
          "name": "",
          "type": "address"
        }
      ],
      "payable": false,
      "stateMutability": "view",
      "type": "function"
    },
    {
      "constant": false,
      "inputs": [
        {
          "internalType": "address",
          "name": "_address",
          "type": "address"
        }
      ],
      "name": "setOwner",
      "outputs": [],
      "payable": false,
      "stateMutability": "nonpayable",
      "type": "function"
    },
    {
      "constant": false,
      "inputs": [
        {
          "internalType": "bytes32",
          "name": "phone",
          "type": "bytes32"
        },
        {
          "internalType": "bytes32",
          "name": "orderType",
          "type": "bytes32"
        },
        {
          "internalType": "uint256",
          "name": "totalDeposit",
          "type": "uint256"
        },
        {
          "internalType": "uint256",
          "name": "endSum",
          "type": "uint256"
        },
        {
          "internalType": "bytes32",
          "name": "currency",
          "type": "bytes32"
        }
      ],
      "name": "createOrder",
      "outputs": [
        {
          "internalType": "uint256",
          "name": "",
          "type": "uint256"
        }
      ],
      "payable": false,
      "stateMutability": "nonpayable",
      "type": "function"
    },
    {
      "constant": false,
      "inputs": [
        {
          "internalType": "uint256",
          "name": "_orderId",
          "type": "uint256"
        }
      ],
      "name": "releaseDeposit",
      "outputs": [],
      "payable": false,
      "stateMutability": "nonpayable",
      "type": "function"
    },
    {
      "constant": false,
      "inputs": [
        {
          "internalType": "bytes32",
          "name": "phone",
          "type": "bytes32"
        },
        {
          "internalType": "bytes32",
          "name": "currency",
          "type": "bytes32"
        },
        {
          "internalType": "uint256",
          "name": "sum",
          "type": "uint256"
        }
      ],
      "name": "fundPhoneWallet",
      "outputs": [],
      "payable": false,
      "stateMutability": "nonpayable",
      "type": "function"
    }
  ],
  "bytecode": "0x60806040527f7464bd924e765ce487910dde7cf78faee47c96a6328f88a0cd374cd7c2491abd60001b6004557fa3dff00f6f863c6e9712ee43c469b14000a9f63073ae34afaa647763cb18c18660001b6005557fc4ae21aac0c6549d71dd96035b7e0bdb6c79ebdba8891b666115bc976d16a29e60001b6006557fc86df68658952a08317197d7ef595a27d44b37f41622030c813206b26f67534960001b6007557fd76a95916688d85014953105a5437b5ae053924ac2b269cafe3cd6e453fac81560001b6008557fe14aac48809d86944f63c7c241c81173d25cd5dda2a1535c2025343eadea00ef60001b6009557fc681c4652bae8bd4b59bec1cdb90f868d93cc9896af9862b196843f54bf254b360001b600a557f589be49821419c9c2fbb26087748bf3420a5c13b45349828f5cac24c58bbaa7b60001b600b557f044852b2a670ade5407e78fb2863c51de9fcb96542a07186fe3aeda6bb8a116d60001b600c557fc89efdaa54c0f20c7adf612882df0950f5a951637e0307cdcb4c672f298b8bc660001b600d5534801561019657600080fd5b50336000806101000a81548173ffffffffffffffffffffffffffffffffffffffff021916908373ffffffffffffffffffffffffffffffffffffffff1602179055506001600381905550610e6d806101ee6000396000f3fe608060405234801561001057600080fd5b50600436106101165760003560e01c80638a72a866116100a2578063a0f109c511610071578063a0f109c5146103d9578063a862ff1614610407578063cd13974614610425578063d1b800c614610443578063e24a4c071461046157610116565b80638a72a866146102e75780638da5cb5b146103055780638fb326f21461034f578063a0b7d39d146103bb57610116565b80633187acd3116100e95780633187acd3146101e15780636affe3c6146101ff57806376d546631461021d5780637ff40c8b1461023b57806380f71eb41461027d57610116565b80630a350df81461011b57806313af403514610139578063163de5e51461017d5780631bebc2381461019b575b600080fd5b61012361047f565b6040518082815260200191505060405180910390f35b61017b6004803603602081101561014f57600080fd5b81019080803573ffffffffffffffffffffffffffffffffffffffff169060200190929190505050610485565b005b61018561058a565b6040518082815260200191505060405180910390f35b6101c7600480360360208110156101b157600080fd5b8101908080359060200190929190505050610590565b604051808215151515815260200191505060405180910390f35b6101e96105bb565b6040518082815260200191505060405180910390f35b6102076105c1565b6040518082815260200191505060405180910390f35b6102256105c7565b6040518082815260200191505060405180910390f35b61027b6004803603606081101561025157600080fd5b810190808035906020019092919080359060200190929190803590602001909291905050506105cd565b005b6102d1600480360360a081101561029357600080fd5b8101908080359060200190929190803590602001909291908035906020019092919080359060200190929190803590602001909291905050506106e9565b6040518082815260200191505060405180910390f35b6102ef610a88565b6040518082815260200191505060405180910390f35b61030d610a8e565b604051808273ffffffffffffffffffffffffffffffffffffffff1673ffffffffffffffffffffffffffffffffffffffff16815260200191505060405180910390f35b61037b6004803603602081101561036557600080fd5b8101908080359060200190929190505050610ab3565b6040518088815260200187815260200186815260200185815260200184815260200183815260200182815260200197505050505050505060405180910390f35b6103c3610af5565b6040518082815260200191505060405180910390f35b610405600480360360208110156103ef57600080fd5b8101908080359060200190929190505050610afb565b005b61040f610dad565b6040518082815260200191505060405180910390f35b61042d610db3565b6040518082815260200191505060405180910390f35b61044b610db9565b6040518082815260200191505060405180910390f35b610469610dbf565b6040518082815260200191505060405180910390f35b600c5481565b6000809054906101000a900473ffffffffffffffffffffffffffffffffffffffff1673ffffffffffffffffffffffffffffffffffffffff163373ffffffffffffffffffffffffffffffffffffffff1614610547576040517f08c379a00000000000000000000000000000000000000000000000000000000081526004018080602001828103825260178152602001807f43616c6c6572206973206e6f7420746865206f776e657200000000000000000081525060200191505060405180910390fd5b806000806101000a81548173ffffffffffffffffffffffffffffffffffffffff021916908373ffffffffffffffffffffffffffffffffffffffff16021790555050565b60035481565b60016020528060005260406000206000915090508060010160009054906101000a900460ff16905081565b600d5481565b60045481565b60065481565b6000809054906101000a900473ffffffffffffffffffffffffffffffffffffffff1673ffffffffffffffffffffffffffffffffffffffff163373ffffffffffffffffffffffffffffffffffffffff161461068f576040517f08c379a00000000000000000000000000000000000000000000000000000000081526004018080602001828103825260178152602001807f43616c6c6572206973206e6f7420746865206f776e657200000000000000000081525060200191505060405180910390fd5b80600160008581526020019081526020016000206000016000848152602001908152602001600020540160016000858152602001908152602001600020600001600084815260200190815260200160002081905550505050565b60008060009054906101000a900473ffffffffffffffffffffffffffffffffffffffff1673ffffffffffffffffffffffffffffffffffffffff163373ffffffffffffffffffffffffffffffffffffffff16146107ad576040517f08c379a00000000000000000000000000000000000000000000000000000000081526004018080602001828103825260178152602001807f43616c6c6572206973206e6f7420746865206f776e657200000000000000000081525060200191505060405180910390fd5b6004548514806107be575060055485145b610830576040517f08c379a00000000000000000000000000000000000000000000000000000000081526004018080602001828103825260148152602001807f496e636f7272656374206f72646572207479706500000000000000000000000081525060200191505060405180910390fd5b82841015610889576040517f08c379a000000000000000000000000000000000000000000000000000000000815260040180806020018281038252602d815260200180610e0c602d913960400191505060405180910390fd5b83600160008881526020019081526020016000206000016000848152602001908152602001600020541015610926576040517f08c379a00000000000000000000000000000000000000000000000000000000081526004018080602001828103825260188152602001807f55736572206861736e277420656e6f7567682066756e6473000000000000000081525060200191505060405180910390fd5b836001600088815260200190815260200160002060000160008481526020019081526020016000205403600160008881526020019081526020016000206000016000848152602001908152602001600020819055508360016000600d5481526020019081526020016000206000016000848152602001908152602001600020540160016000600d5481526020019081526020016000206000016000848152602001908152602001600020819055506040518060e0016040528060035481526020018781526020018681526020018381526020018581526020018481526020016000815250600260006003548152602001908152602001600020600082015181600001556020820151816001015560408201518160020155606082015181600301556080820151816004015560a0820151816005015560c08201518160060155905050600060035490506001600354016003819055508091505095945050505050565b60095481565b6000809054906101000a900473ffffffffffffffffffffffffffffffffffffffff1681565b60026020528060005260406000206000915090508060000154908060010154908060020154908060030154908060040154908060050154908060060154905087565b60055481565b6000809054906101000a900473ffffffffffffffffffffffffffffffffffffffff1673ffffffffffffffffffffffffffffffffffffffff163373ffffffffffffffffffffffffffffffffffffffff1614610bbd576040517f08c379a00000000000000000000000000000000000000000000000000000000081526004018080602001828103825260178152602001807f43616c6c6572206973206e6f7420746865206f776e657200000000000000000081525060200191505060405180910390fd5b6000600260008381526020019081526020016000206006015414610c49576040517f08c379a00000000000000000000000000000000000000000000000000000000081526004018080602001828103825260168152602001807f496e636f7272656374206f72646572207374617475730000000000000000000081525060200191505060405180910390fd5b610c51610dc5565b600260008381526020019081526020016000206040518060e0016040529081600082015481526020016001820154815260200160028201548152602001600382015481526020016004820154815260200160058201548152602001600682015481525050905060008160a00151826080015103905080600160008460200151815260200190815260200160002060000160008460600151815260200190815260200160002054016001600084602001518152602001908152602001600020600001600084606001518152602001908152602001600020819055508060016000600d548152602001908152602001600020600001600084606001518152602001908152602001600020540360016000600d5481526020019081526020016000206000016000846060015181526020019081526020016000208190555060016002600085815260200190815260200160002060060181905550505050565b600a5481565b60075481565b600b5481565b60085481565b6040518060e0016040528060008152602001600080191681526020016000801916815260200160008019168152602001600081526020016000815260200160008152509056fe546f74616c206465706f7369742073686f756c64206265206d6f7265206f7220657175616c20656e642073756da265627a7a72315820d82a23997726264777c2a6ea8d2165dffe5dc32e435c7a88d69391d3191a2d6064736f6c63430005100032",
  "source": "// store wallet info for different currencies. map(hash(phone))=>Wallet[defaultCurrency, KES=>uint, UGX=>uint,]\n// bonus store\n// escrow process\n// mark is user verified or not\n// set oracle data about currency price for convertation\n\n// SPDX-License-Identifier: MIT\npragma solidity >=0.4.22 <0.9.0;\n\n//pragma experimental ABIEncoderV2;\n\ncontract WalletEscrow {\n    address public owner;\n    // key - keccak256('PHONE_NUMBER')\n    // phone_number === 0 - test number\n    // phone_number === 1 - liquidstar number\n    mapping(bytes32 => UserWallet) public Phones;\n    mapping(uint => Order) public Orders;\n\n    uint public orderId;\n    bytes32 public TypeWater = 0x7464bd924e765ce487910dde7cf78faee47c96a6328f88a0cd374cd7c2491abd;\n    bytes32 public TypeBattery = 0xa3dff00f6f863c6e9712ee43c469b14000a9f63073ae34afaa647763cb18c186;\n\n    // US Dollar\n    bytes32 public CurrencyUSD = 0xc4ae21aac0c6549d71dd96035b7e0bdb6c79ebdba8891b666115bc976d16a29e;\n    // Nigerian naira\n    bytes32 public CurrencyNGN = 0xc86df68658952a08317197d7ef595a27d44b37f41622030c813206b26f675349;\n    // Djiboutian franc\n    bytes32 public CurrencyDJF = 0xd76a95916688d85014953105a5437b5ae053924ac2b269cafe3cd6e453fac815;\n    // West African CFA franc\n    bytes32 public CurrencyXOF = 0xe14aac48809d86944f63c7c241c81173d25cd5dda2a1535c2025343eadea00ef;\n    // Indonesian rupiah\n    bytes32 public CurrencyIDR = 0xc681c4652bae8bd4b59bec1cdb90f868d93cc9896af9862b196843f54bf254b3;\n    // Kenyan shilling\n    bytes32 public CurrencyKES = 0x589be49821419c9c2fbb26087748bf3420a5c13b45349828f5cac24c58bbaa7b;\n\n    bytes32 public TestPhone = 0x044852b2a670ade5407e78fb2863c51de9fcb96542a07186fe3aeda6bb8a116d;\n    bytes32 public CompanyPhone = 0xc89efdaa54c0f20c7adf612882df0950f5a951637e0307cdcb4c672f298b8bc6;\n\n    struct UserWallet\n    {\n        mapping(bytes32 => uint) balanceCurrency;\n\n        bool isActive;\n    }\n\n    struct Order\n    {\n        uint id;\n        bytes32 phone;\n        bytes32 orderType;\n        bytes32 currency;\n        uint totalDeposit;\n        uint endSum;\n        // 0 - new, 1 - complete\n        uint status;\n    }\n\n    modifier onlyOwner() {\n        require(msg.sender == owner, \"Caller is not the owner\");\n        _;\n    }\n\n    function setOwner(address _address) onlyOwner public {\n        owner = _address;\n    }\n\n    constructor() public {\n        owner = msg.sender;\n        orderId = 1;\n    }\n\n    function createOrder(bytes32 phone, bytes32 orderType, uint totalDeposit, uint endSum, bytes32 currency) onlyOwner public returns (uint) {\n        require(orderType == TypeWater || orderType == TypeBattery, \"Incorrect order type\");\n        require(totalDeposit >= endSum, \"Total deposit should be more or equal end sum\");\n        require(Phones[phone].balanceCurrency[currency] >= totalDeposit, \"User hasn't enough funds\");\n\n        Phones[phone].balanceCurrency[currency] = Phones[phone].balanceCurrency[currency] - totalDeposit;\n        Phones[CompanyPhone].balanceCurrency[currency] = Phones[CompanyPhone].balanceCurrency[currency] + totalDeposit;\n        Orders[orderId] = Order({id : orderId, phone : phone, orderType : orderType, currency : currency, totalDeposit : totalDeposit, endSum : endSum, status : 0});\n        uint returnId = orderId;\n        orderId = orderId + 1;\n\n        return returnId;\n    }\n\n    function releaseDeposit(uint _orderId) onlyOwner public {\n        require(Orders[_orderId].status == 0, \"Incorrect order status\");\n\n        Order memory order = Orders[_orderId];\n        uint returnSum = order.totalDeposit - order.endSum;\n        // plus funds to user\n        Phones[order.phone].balanceCurrency[order.currency] = Phones[order.phone].balanceCurrency[order.currency] + returnSum;\n        // minus fund from company\n        Phones[CompanyPhone].balanceCurrency[order.currency] = Phones[CompanyPhone].balanceCurrency[order.currency] - returnSum;\n\n        Orders[_orderId].status = 1;\n    }\n\n    function fundPhoneWallet(bytes32 phone, bytes32 currency, uint sum) onlyOwner public {\n        Phones[phone].balanceCurrency[currency] = Phones[phone].balanceCurrency[currency] + sum;\n    }\n}\n",
  "sourcePath": "/Users/sdancer/web/sms-wallet-bot/smart/contracts/WalletEscrow.sol",
  "compiler": {
    "name": "solc",
    "version": "0.5.16+commit.9c3226ce.Emscripten.clang"
  },
  "schemaVersion": "3.3.4",
  "updatedAt": "2021-07-24T23:41:43.150Z",
  "devdoc": {
    "methods": {}
  },
  "userdoc": {
    "methods": {}
  }
}